{
  "contractName": "Jubili",
  "abi": [
    {
      "constant": true,
      "inputs": [],
      "name": "totalStaking",
      "outputs": [
        {
          "name": "",
          "type": "uint256"
        }
      ],
      "payable": false,
      "stateMutability": "view",
      "type": "function"
    },
    {
      "constant": true,
      "inputs": [],
      "name": "SOCIAL_TRUST_NEW",
      "outputs": [
        {
          "name": "",
          "type": "uint256"
        }
      ],
      "payable": false,
      "stateMutability": "view",
      "type": "function"
    },
    {
      "constant": true,
      "inputs": [
        {
          "name": "",
          "type": "address"
        }
      ],
      "name": "users",
      "outputs": [
        {
          "name": "gotBonus",
          "type": "bool"
        },
        {
          "name": "totalStaking",
          "type": "uint256"
        }
      ],
      "payable": false,
      "stateMutability": "view",
      "type": "function"
    },
    {
      "constant": true,
      "inputs": [
        {
          "name": "",
          "type": "address"
        },
        {
          "name": "",
          "type": "address"
        }
      ],
      "name": "userFriends",
      "outputs": [
        {
          "name": "staking",
          "type": "uint256"
        },
        {
          "name": "friendType",
          "type": "string"
        },
        {
          "name": "trust",
          "type": "uint8"
        },
        {
          "name": "isExistingFriend",
          "type": "bool"
        },
        {
          "name": "isMutual",
          "type": "bool"
        }
      ],
      "payable": false,
      "stateMutability": "view",
      "type": "function"
    },
    {
      "inputs": [],
      "payable": false,
      "stateMutability": "nonpayable",
      "type": "constructor"
    },
    {
      "anonymous": false,
      "inputs": [
        {
          "indexed": true,
          "name": "user",
          "type": "address"
        }
      ],
      "name": "JubiliNewUser",
      "type": "event"
    },
    {
      "anonymous": false,
      "inputs": [
        {
          "indexed": true,
          "name": "from",
          "type": "address"
        },
        {
          "indexed": true,
          "name": "to",
          "type": "address"
        },
        {
          "indexed": false,
          "name": "amount",
          "type": "uint256"
        },
        {
          "indexed": false,
          "name": "trustScore",
          "type": "uint8"
        }
      ],
      "name": "JubiliStakeFriend",
      "type": "event"
    },
    {
      "constant": true,
      "inputs": [
        {
          "name": "user",
          "type": "address"
        }
      ],
      "name": "getFriends",
      "outputs": [
        {
          "name": "",
          "type": "address[]"
        }
      ],
      "payable": false,
      "stateMutability": "view",
      "type": "function"
    },
    {
      "constant": true,
      "inputs": [],
      "name": "isUser",
      "outputs": [
        {
          "name": "",
          "type": "bool"
        }
      ],
      "payable": false,
      "stateMutability": "view",
      "type": "function"
    },
    {
      "constant": false,
      "inputs": [],
      "name": "newUser",
      "outputs": [],
      "payable": false,
      "stateMutability": "nonpayable",
      "type": "function"
    }
  ],
  "bytecode": "0x60806040526000805534801561001457600080fd5b50600080819055506106b08061002b6000396000f300608060405260043610610083576000357c0100000000000000000000000000000000000000000000000000000000900463ffffffff168063165defa4146100885780634c22c119146100b35780635cbb7caa146100e25780636cebad981461017a578063970afe3914610191578063a87430ba146101bc578063aff01c521461021e575b600080fd5b34801561009457600080fd5b5061009d610324565b6040518082815260200191505060405180910390f35b3480156100bf57600080fd5b506100c861032a565b604051808215151515815260200191505060405180910390f35b3480156100ee57600080fd5b50610123600480360381019080803573ffffffffffffffffffffffffffffffffffffffff169060200190929190505050610381565b6040518080602001828103825283818151815260200191508051906020019060200280838360005b8381101561016657808201518184015260208101905061014b565b505050509050019250505060405180910390f35b34801561018657600080fd5b5061018f610451565b005b34801561019d57600080fd5b506101a661054b565b6040518082815260200191505060405180910390f35b3480156101c857600080fd5b506101fd600480360381019080803573ffffffffffffffffffffffffffffffffffffffff169060200190929190505050610551565b60405180831515151581526020018281526020019250505060405180910390f35b34801561022a57600080fd5b5061027f600480360381019080803573ffffffffffffffffffffffffffffffffffffffff169060200190929190803573ffffffffffffffffffffffffffffffffffffffff169060200190929190505050610582565b60405180868152602001806020018560ff1660ff1681526020018415151515815260200183151515158152602001828103825286818151815260200191508051906020019080838360005b838110156102e55780820151818401526020810190506102ca565b50505050905090810190601f1680156103125780820380516001836020036101000a031916815260200191505b50965050505050505060405180910390f35b60005481565b6000600160003373ffffffffffffffffffffffffffffffffffffffff1673ffffffffffffffffffffffffffffffffffffffff16815260200190815260200160002060000160009054906101000a900460ff16905090565b6060600160008373ffffffffffffffffffffffffffffffffffffffff1673ffffffffffffffffffffffffffffffffffffffff16815260200190815260200160002060010180548060200260200160405190810160405280929190818152602001828054801561044557602002820191906000526020600020905b8160009054906101000a900473ffffffffffffffffffffffffffffffffffffffff1673ffffffffffffffffffffffffffffffffffffffff16815260200190600101908083116103fb575b50505050509050919050565b600160003373ffffffffffffffffffffffffffffffffffffffff1673ffffffffffffffffffffffffffffffffffffffff16815260200190815260200160002060000160009054906101000a900460ff16156104ab57610549565b60018060003373ffffffffffffffffffffffffffffffffffffffff1673ffffffffffffffffffffffffffffffffffffffff16815260200190815260200160002060000160006101000a81548160ff0219169083151502179055503373ffffffffffffffffffffffffffffffffffffffff167fb413ae754e6d65295e6c3561920c73710d8349fd791fc47cbff7016345780f6860405160405180910390a25b565b6107d081565b60016020528060005260406000206000915090508060000160009054906101000a900460ff16908060020154905082565b600260205281600052604060002060205280600052604060002060009150915050806000015490806001018054600181600116156101000203166002900480601f0160208091040260200160405190810160405280929190818152602001828054600181600116156101000203166002900480156106415780601f1061061657610100808354040283529160200191610641565b820191906000526020600020905b81548152906001019060200180831161062457829003601f168201915b5050505050908060020160009054906101000a900460ff16908060020160019054906101000a900460ff16908060020160029054906101000a900460ff169050855600a165627a7a72305820a3486d23e935626cc34274348862b843f98383750f2d7f726ca66c0ac8b45af20029",
  "source": "pragma solidity ^0.4.18;\n\n/* import './JubiliToken.sol';\nimport './JubiliCredit.sol'; */\nimport 'openzeppelin-solidity/contracts/token/ERC20/MintableToken.sol';\nimport \"openzeppelin-solidity/contracts/math/SafeMath.sol\";\n\n\ncontract Jubili  {\n  using SafeMath for uint256;\n\n  struct User {\n      bool gotBonus;\n      address[] friends;\n      uint totalStaking;\n  }\n  struct Friend {\n    uint256 staking;\n    string friendType;\n    uint8 trust;\n    bool isExistingFriend;//is existing friend\n    bool isMutual;\n  }\n\n  uint public totalStaking = 0;\n  uint public constant SOCIAL_TRUST_NEW = 2000;\n\n  mapping(address => User) public users;\n  mapping(address => mapping(address => Friend)) public userFriends;\n\n  /* JubiliToken public jblToken;\n  JubiliCredit public jblCredit; */\n\n  event JubiliNewUser(address indexed user);\n  event JubiliStakeFriend(address indexed from,address indexed to,uint amount, uint8 trustScore);\n\n  function Jubili() public {\n    totalStaking = 0;\n    /* jblCredit = new JubiliCredit();\n    jblToken = new JubiliToken(); */\n  }\n  function getFriends(address user) public constant returns (address[]) {\n    return users[user].friends;\n  }\n  function isUser()  public constant returns (bool) {\n    return users[msg.sender].gotBonus;\n  }\n\n  function newUser() public {\n    if(users[msg.sender].gotBonus)\n      return;\n    users[msg.sender].gotBonus = true ;\n    /* jblToken.giveBonus(msg.sender,SOCIAL_TRUST_NEW,JubiliToken.TrustBonus.NewUser); */\n    emit JubiliNewUser(msg.sender);\n  }\n}\n",
  "sourcePath": "/home/hadar/workspace/jubili-hackathon/imports/truffle/contracts/Jubili.sol",
  "compiler": {
    "name": "solc",
    "version": "0.4.23+commit.124ca40d.Emscripten.clang"
  },
  "schemaVersion": "2.0.0",
  "updatedAt": "2018-05-10T09:21:08.912Z"
}